:020000040800F2
:1080000000800120ADC800083D83000841830008BE
:1080100045830008498300084D83000800000000E4
:108020000000000000000000000000005183000874
:1080300055830008000000005983000885C100082E
:10804000F1C80008F1C80008F1C80008F1C800082C
:10805000F1C80008F1C80008F1C80008F1C800081C
:10806000F1C80008F1C80008F1C80008F1C800080C
:10807000F1C80008F1C80008F1C80008F1C80008FC
:10808000F1C80008F1C80008F1C80008F1C80008EC
:10809000F1C80008F1C80008F1C80008F1C80008DC
:1080A000F1C80008F1C80008F1C80008F1C80008CC
:1080B000F1C80008F1C80008F1C80008F1C80008BC
:1080C000F1C80008F1C80008F1C80008F1C80008AC
:1080D000F1C80008F1C80008F1C80008F1C800089C
:1080E000F1C80008F1C80008F1C80008F1C800088C
:1080F000F1C80008F1C80008F1C80008F1C800087C
:10810000F1C80008F1C80008F1C80008F1C800086B
:10811000F1C80008F1C80008F1C80008F1C800085B
:10812000F1C80008F1C80008F1C80008F1C800084B
:10813000F1C80008F1C80008F1C80008F1C800083B
:10814000F1C80008F1C80008F1C8000815C400080B
:10815000F1C80008F1C80008F1C80008F1C800081B
:10816000F1C80008F1C80008F1C80008F1C800080B
:10817000F1C80008F1C80008F1C80008F1C80008FB
:04818000F1C800083A
:1081840010B5054C237833B9044B13B10448AFF34D
:1081940000800123237010BD4C010020000000006A
:1081A400A4C900080C4B43B10C4810B50C49AFF3FB
:1081B40000800C48036823B910BD0A48036833B92A
:1081C4007047094B002BF7D0BDE810401847064B09
:1081D400002BF5D0184700BF00000000A4C9000818
:1081E400500100204C010020000000000020354B0D
:1081F40010B41968344C41F0010119609860196891
:1082040083B021F0847121F4803119605C601968B5
:108214001A4621F480211960D860009001901968F1
:1082240041F48031196003E0009BB3F5A06F09D0DD
:10823400136803F400330193009B01330093019B03
:10824400002BF1D01F4B1B6813F4003318BF01231C
:108254000193019B012B05D01C4A1D4B9A6003B06E
:1082640010BC7047174B1B4C1A4699681A48996002
:10827400996841F400419960996841F4A05199606A
:108284002168006841F0A86141EA801159601968C9
:1082940041F08071196013689B01FCD540F20370B2
:1082A4000E4B08491860936823F0030393609368A6
:1082B40043F0020393608B6803F00C03082BFAD19C
:1082C400CAE700BF003802401030002400800008D4
:1082D40000ED00E0CC000020C8000020003C02407B
:1082E400124A936803F00C03082B1CD150685168A0
:1082F4000F4B01F03F01B3FBF1F35268C2F3881254
:1083040003FB02F3094A5268C2F3014201325200EC
:10831400B3FBF2F3054A07499268C2F303128A5C7D
:10832400D3400B617047024BF4E700BF00380240B2
:108334000024F40000000020704700BFFEE700BFE7
:10834400FEE700BFFEE700BFFEE700BF704700BFC7
:10835400704700BF704700BF704700BF08B50121D8
:108364004FF4807001F0DAF8BDE8084000214FF4C2
:10837400807001F0D3B800BF436870B423F0407339
:108384000C790A6823F4807343EA0423134343609B
:10839400CE680B6985688C68094A33432A402343B5
:1083A4004C79134343EA440383600A7DC36A013A68
:1083B400D2B223F4700343EA0253C36270BC704721
:1083C400FDF7FFC0002301220360027503714371AE
:1083D4008360C36003617047074930B490E82800A4
:1083E4004C68064A2B43224084681343C2682343E3
:1083F40013434B6030BC704700230140E030FCFF66
:108404000023036043608360C3607047836819B9C5
:1084140023F001038360704743F0010383607047D6
:10842400436823F4400323F4007319434160704705
:1084340041628262704700BF436823F01F031943FF
:1084440041607047054A536818B923F40003536028
:10845400704743F400035360704700BF002301409A
:10846400054A536818B923F480035360704743F4F2
:1084740080035360704700BF00230140092970B492
:108484001DD90726A1F10A0404EB4404C568A640DB
:10849400A34025EA06042343062AC3604FF01F04C1
:1084A4001BD90C2A25D90D3A02EB8202C36A9440E7
:1084B400914023EA04021143C16270BC704707254E
:1084C40001EB41060469B54024EA0504B3402343A3
:1084D400062A03614FF01F04E3D8013A02EB82023B
:1084E400436B9440914023EA04021143416370BCFE
:1084F4007047073A02EB8202036B9440914023EAEF
:1085040004021143016370BC704700BF836843F0E9
:1085140080438360704700BF836819B923F4806384
:108524008360704743F4806383607047836819B93C
:1085340023F002038360704743F0020383607047B3
:108544004368013923F4604343EA4133436070478D
:10855400436819B923F400634360704743F400632C
:1085640043607047C06C80B2704700BF014B18680D
:10857400704700BF08230140836819B923F480734E
:108584008360704743F4807383607047836819B9CC
:1085940023F400738360704743F40073836070476F
:1085A400054A536818B923F400535360704743F4E1
:1085B40000535360704700BF00230140092970B481
:1085C4001AD8072501EB41060469B540B34024EAF3
:1085D4000504234303611F24836B0232C3F3015553
:1085E400521BD2B202EB8202944023EA040391406C
:1085F4001943816370BC70470726A1F10A0404EB98
:108604004404C568A640A34025EA06042343C36086
:10861400E1E700BF836B013923F4401343EA0153BC
:1086240083637047002382B001930190019B194436
:108634000191019B1A6002B0704700BF836823F464
:108644007023194381607047836823F440131943EE
:1086540081607047836843F480038360704700BF80
:108664008068C0F380507047FFF7FABF436819B9B8
:1086740023F480634360704743F48063436070472E
:10868400436819B923F480534360704743F480531B
:1086940043607047002382B001930190019B28330B
:1086A40019440191019B186880B202B0704700BF61
:1086B4000123C9B28B4041681AB921EA030343601C
:1086C40070470B43436070470368194214BF01208D
:1086D40000207047C9430160704700BF42680068CA
:1086E40010EA112007D00123C9B203FA01F11142A3
:1086F40014BF1846002070476FEA112101607047CB
:10870400002310B421240268334922F00102884274
:108714000260036043608360C3600361446149D0C5
:108724002E4B984234D02E4B984237D02D4B984242
:108734003AD02D4B984242D02C4B984243D02C4BEC
:1087440098421CD02B4B98421DD02B4B98423ED0C4
:108754002A4B98421CD02A4B98421FD0294B98424E
:1087640022D0294B98422AD0284B98422BD0284B10
:10877400984204D0274B984205D010BC7047264A33
:1087840043F8942CF9E74FF03D5243F8AC2CF4E74E
:108794004FF4746210BC43F8202C70474FF47412E9
:1087A40010BC43F8382C70474FF0746210BC43F887
:1087B400502C70473D22194B10BC9A607047184AE0
:1087C40043F8642CD9E7174A43F87C2CD5E73D22BB
:1087D40043F8082CD1E700BF106002402860024033
:1087E400406002405860024070600240886002406D
:1087F400A0600240B8600240106402402864024055
:10880400406402405864024070640240886402403C
:10881400A0640240B864024000003D2000600240B1
:108824003D000020400F0020CA680B6870B44C69FA
:1088340013438A692343CC6913430A6A23434C6A6A
:1088440013438A6A4E6B23438D6B046813430B4AAC
:10885400334322402B43134303600C6BCB6A4269BE
:108864000D69234322F007024C688968134343616E
:1088740045608460C16070BC704700BF3F801CF0DD
:108884000023036043608360C360036143618361C9
:10889400C361036243628362C362036343638363AA
:1088A400704700BF036819B923F0010303607047E0
:1088B40043F0010303607047036819B923F40043CC
:1088C4000360704743F4004303607047036819B9B9
:1088D40023F020030360704743F0200303607047D4
:1088E40041607047406880B2704700BF036822B996
:1088F40023F4002303600161704743F40023036001
:1089040001617047036819B923F480230360704739
:1089140043F48023036070470AB9C1607047016162
:10892400704700BF0068C0F3C0407047006800F0A3
:1089340001007047406900F0380070470A4B10B4DA
:108944000A4A0B4CA04294BF184610468B004CBFF9
:108954004368036821F0F02121F08211194214BF09
:108964000120002010BC70470060024000640240F7
:108974000F6402400B060CD54369AAB143F080038F
:10898400802943610FD0036801F01E01194301607F
:108994007047802907D0002AF5D1036801F01E0131
:1089A40023EA01010160704723F0800380294361B9
:1089B400F3D1704730B4114A114D124C21F0F02319
:1089C40023F0C313A84288BF22469BB1006800EA83
:1089D400D12000F01E0388004CBF5068106821F0BD
:1089E400F02121F08211084002D0181C18BF012088
:1089F40030BC7047436903F08003ECE70060024039
:108A04000F6402400064024010B4094B094C0A4A46
:108A1400A04294BF1846104611F0005F21F0F021E7
:108A240021F0821114BFC160816010BC704700BF87
:108A3400006002400F64024000640240FFF7E4BF9C
:108A44000022044B04491A605A609A60DA60596142
:108A5400704700BF003C0140FFFF7F00837933B3C0
:108A640030B404681B4BE1431D6802790D401D605E
:108A74005D6802F180422940596002F59E32156812
:108A840041792C43146002689C68D04304409C6084
:108A9400DC68102900EA0400D86013D030BC01F16E
:108AA400804303F59E3319680A431A6070470379BB
:108AB400016803F1804303F59E331A6822EA010238
:108AC4001A607047996830BC11439960D9680A43A9
:108AD400DA607047003C014000230C2203604271BD
:108AE40003718371704700BF024A13691843106110
:108AF400704700BF003C0140034B5B69034214BF55
:108B040001200020704700BF003C0140014B586128
:108B1400704700BF003C0140054B1A685B69034085
:108B240004D0024214BF0120002070471846704749
:108B3400003C0140014B5861704700BF003C0140BC
:108B4400014BC0B218707047003C0240054A1368DC
:108B540018B923F480731360704743F4807313606F
:108B6400704700BF003C0240054A136818B923F45B
:108B740000731360704743F400731360704700BFC1
:108B8400003C0240054A136818B923F4806313605B
:108B9400704743F480631360704700BF003C024099
:108BA400024A136843F4006313607047003C0240B8
:108BB400024A136843F4805313607047003C024038
:108BC400044B1A69002A03DA0349044A59605A60BB
:108BD400704700BF003C024023016745AB89EFCDDD
:108BE400024A136943F0004313617047003C02409A
:108BF400044B5A69D20703D50349044A99609A6021
:108C0400704700BF003C02403B2A19087F6E5D4C50
:108C1400024A536943F0010353617047003C024028
:108C2400044B1A7802F0F3021A701A781043187081
:108C3400704700BF143C0240024B5869C0F3471010
:108C4400704700BF003C0240014B188880B2704757
:108C5400163C0240024B1878AA3818BF012070470E
:108C6400153C0240024B187800F00C00704700BF1E
:108C7400143C0240044A136919B923EA0000106144
:108C84007047184310617047003C0240034BDB6897
:108C9400034214BF01200020704700BF003C024083
:108CA400014BD860704700BF003C02400B4BDA68B0
:108CB400D1030AD4DA68D20601D505207047DA68F0
:108CC40012F0EF0F03D00620704701207047DB68D5
:108CD40013F0020F14BF072008207047003C024025
:108CE400082300B583B08DF80730FFF7DFFF8DF858
:108CF40007009DF80730012BF7D09DF80700C0B29C
:108D040003B05DF804FB00BF70B5064659B30129F2
:108D14002FD002290CBF4FF400744FF44074FFF7B6
:108D2400DFFF082824D1144D2B6923F440732B61F1
:108D34002969214329612B6923F0F8032B612B69ED
:108D440043F002031E432E612B6943F480332B61ED
:108D5400FFF7C6FF2B6923F002032B612B6923F075
:108D6400F8032B6170BD0C46FFF7BAFF0828DAD070
:108D740070BD4FF48074F7E7003C024038B50446F8
:108D8400FFF7AEFF3CB1012C08D0022C0CBF4FF40E
:108D940000744FF44074082804D038BD08284FF4F8
:108DA4008074FAD10B4D2B6923F440732B612B692A
:108DB4001C432C612B6943F004032B612B6943F49E
:108DC40080332B61FFF78CFF2B6923F004032B61A5
:108DD40038BD00BF003C0240F8B5054616461F46A4
:108DE400FFF77EFF082800D0F8BD0B4C236923F45D
:108DF40040732361236943F440732361236943F07F
:108E040001032361C5E90067FFF76AFF236923F0C3
:108E140001032361F8BD00BF003C024070B5054664
:108E24000E46FFF75DFF082800D070BD0A4C236989
:108E340023F440732361236943F40073236123699A
:108E440043F0010323612E60FFF74AFF236923F0F7
:108E54000103236170BD00BF003C024070B50546AC
:108E64000E46FFF73DFF082800D070BD0A4C236969
:108E740023F440732361236943F4807323612369DA
:108E840043F0010323612E80FFF72AFF236923F0B7
:108E94000103236170BD00BF003C024070B505466C
:108EA4000E46FFF71DFF082800D070BD094C23694A
:108EB40023F44073236123692361236943F001038D
:108EC40023612E70FFF70CFF236923F00103236154
:108ED40070BD00BF003C024038B504460D46FFF7A4
:108EE400FFFE082800D038BD2DB9064B1A8814435C
:108EF400A4B21C8038BD034A13889BB223EA04043D
:108F0400148038BD163C024010B50446FFF7E8FE55
:108F1400082804BF014B1C7010BD00BF153C024063
:108F240070B506460C461546FFF7DAFE082807D149
:108F3400044A137803F00F031E4335432C43147083
:108F440070BD00BF143C0240034A137843F002038F
:108F54001370FFF7C5BE00BF143C024008B53C4B7C
:108F6400984224D03B4B98422BD03B4B984232D072
:108F74003A4B984239D03A4B984240D0394B9842B8
:108F840047D0394B98424ED0384B984255D0384B45
:108F9400984200D008BD01214FF4807000F08EFA91
:108FA400BDE8084000214FF4807000F087BA012129
:108FB400084600F083FABDE808400021012000F0D3
:108FC4007DBA0121022000F079FABDE808400021B1
:108FD400022000F073BA0121042000F06FFABDE80A
:108FE40008400021042000F069BA0121082000F0A3
:108FF40065FABDE808400021082000F05FBA0121AD
:10900400102000F05BFABDE808400021102000F0B9
:1090140055BA0121202000F051FABDE80840002192
:10902400202000F04BBA0121402000F047FABDE8AF
:1090340008400021402000F041BA0121802000F0C6
:109044003DFABDE808400021802000F037BA00BF97
:10905400000002400004024000080240000C0240EC
:10906400001002400014024000180240001C02409C
:109074000020024000222DE9F04313464FF0010E78
:109084004FF0030C0F6804E00133102B02F10202CD
:1090940029D00EFA03F434EA0705F5D10CFA02F6E6
:1090A400F643D0F800800D7908EA0608C0F800807D
:1090B400D0F8009005FA02F8013D48EA0908012DAC
:1090C400C0F8008011D9C4680CFA02F524EA05043A
:1090D400C460CC79C568944001332C43102BC46020
:1090E40002F10202D5D1BDE8F083D0F808804D79B1
:1090F40006EA0806866086689540354385604668BA
:109104008D7926EA04044460466805FA03F4A4B29F
:1091140034434460D7E700BF00234FF6FF72037166
:10912400026043718371C371704700BF4FF4803391
:1091340082B00193019B0B430193019BC361C16105
:10914400019BC361C3690193C369019302B0704772
:109154000369194214BF012000207047006980B2DE
:10916400704700BF4369194214BF012000207047B3
:10917400406980B2704700BF0183704741837047E4
:109184000AB9418370470183704700BF416170474A
:10919400436959404161704710B40F24CB0800EB78
:1091A400830001F00701036A89008C4023EA040369
:1091B4000362036A02FA01F11943016210BC7047A9
:1091C40000210A4B0A481A6842F001021A609960A9
:1091D4001A6822F0847222F480321A6058601A6885
:1091E40022F480221A60D960704700BF0038024020
:1091F400103000240022024B1A701870704700BF10
:1092040002380240002382B00A4A019302E0B3F517
:10921400A06F08D0136813F4003F019B03F101030E
:109224000193019BF3D0034B1868C0F3404002B094
:10923400704700BF00380240034A136823F0F80364
:1092440043EAC0001060704700380240014B1860C8
:10925400704700BF000047420022064B01281A70E5
:109264001A7005D0042802D105221A70704770477D
:109274001870704770380240014B1860704700BF87
:10928400800E474210B4019C5B0840EA0460084326
:1092940040EA8210013B034A40EA0340506010BC9C
:1092A400704700BF00380240014B1860704700BF90
:1092B400600047420907034B41EA8011C3F8841058
:1092C400704700BF00380240014B1860704700BF70
:1092D40068004742014B1860704700BF4C0047428A
:1092E400034A936823F0EC63194301439160704788
:1092F40000380240034A936823F07843194301433A
:109304009160704700380240034A936823F00303D6
:1093140018439060704700BF00380240024B9868C1
:1093240000F00C00704700BF00380240034A936805
:1093340023F0F00318439060704700BF00380240E8
:10934400034A936823F4E05318439060704700BFC6
:1093540000380240034A936823F4604343EAC000A0
:1093640090607047003802401E4A10B4936803F0BE
:109374000C03042B06D0082B1DD01BB11A4A13462C
:10938400026001E0184B0360164A18499468C4F35C
:1093940003140C5DE34043609468C4F382240C5DC1
:1093A40023FA04F48460926810BCC2F342328A5CEB
:1093B400D340C3607047546851680B4B01F03F01C0
:1093C400B3FBF1F35268C2F3881203FB02F3054ABC
:1093D4005268C2F3014201325200B3FBF2F303605C
:1093E400D2E700BF003802400024F400140000203B
:1093F40000F44073B3F5407F09D1084920F070436D
:109404008A6823F4407322F4F81213438B60034BED
:10941400C0F30B001A6F10431867704700380240FE
:10942400014B1860704700BF3C0E4742014B186067
:10943400704700BF400E4742014B1860704700BFA1
:109444005C014742044A136B19B923EA0000106314
:10945400704718431063704700380240044A536B46
:1094640019B923EA000050637047184350637047EA
:1094740000380240044A936B19B923EA0000906350
:10948400704718439063704700380240044A136CD5
:1094940019B923EA00001064704718431064704738
:1094A40000380240044A536C19B923EA000050649E
:1094B400704718435064704700380240044A1369E7
:1094C40019B923EA0000106170471843106170470E
:1094D40000380240044A536919B923EA0000506174
:1094E400704718435061704700380240044A93693A
:1094F40019B923EA000090617047184390617047DE
:1095040000380240044A136A19B923EA00001062C1
:10951400704718431062704700380240044A536A87
:1095240019B923EA0000506270471843506270472B
:1095340000380240044A136D19B923EA000010658B
:10954400704718431065704700380240044A536D51
:1095540019B923EA000050657047184350657047F5
:1095640000380240044A936D19B923EA000090655B
:10957400704718439065704700380240044A136EE0
:1095840019B923EA00001066704718431066704743
:1095940000380240044A536E19B923EA00005066A9
:1095A400704718435066704700380240044A1378E5
:1095B40019B923EA000010707047184310707047FF
:1095C4000D3802404309012B0BD0022B094B00F04C
:1095D4001F000CBF1B6F5B6F23FA00F000F001004B
:1095E4007047044B00F01F001B6823FA00F000F0E2
:1095F4000100704700380240024A536F43F0807301
:109604005367704700380240034BDB68184214BFAD
:1096140001200020704700BF00380240014B187041
:10962400704700BF0E38024008B5604B984235D0F1
:10963400B0F1804F3CD05E4B984243D05D4B984292
:109644004AD05D4B984251D05C4B984258D05C4B09
:1096540098425FD05B4B984266D05B4B98426DD08A
:109664005A4B984276D05A4B98427FD0594B9842E5
:1096740000F08880584B984200F08E80574B9842F7
:1096840000D008BD01214FF48070FFF73BFFBDE817
:10969400084000214FF48070FFF734BF01210846D1
:1096A400FFF73CFFBDE8084000210120FFF736BF6B
:1096B40001210846FFF726FFBDE8084000210120EC
:1096C400FFF720BF01210220FFF71CFFBDE808407F
:1096D40000210220FFF716BF01210420FFF712FF2B
:1096E400BDE8084000210420FFF70CBF0121082039
:1096F400FFF708FFBDE8084000210820FFF702BF7C
:1097040001211020FFF7FEFEBDE8084000211020D3
:10971400FFF7F8BE01212020FFF7F4FEBDE8084062
:1097240000212020FFF7EEBE01210220FFF7F6FE04
:10973400BDE8084000210220FFF7F0BE01214FF4EC
:109744008030FFF7EBFEBDE8084000214FF4803085
:10975400FFF7E4BE01214FF40030FFF7DFFEBDE860
:10976400084000214FF40030FFF7D8BE01214FF428
:109774008020FFF7D3FEBDE8084000214FF480208D
:10978400FFF7CCBE01214020FFF7BCFEBDE8084036
:1097940000214020FFF7B6BE01218020FFF7B2FE72
:1097A400BDE8084000218020FFF7ACBE0000014066
:1097B4000004004000080040000C0040001000407D
:1097C40000140040000401400040014000440140F6
:1097D4000048014000180040001C004000200040E8
:1097E400234A038890429BB212D002F580629042D1
:1097F4000ED0B0F1804F0BD0A2F58032904207D04A
:1098040002F58062904203D002F58062904203D157
:109814004A8823F070031343164A90421FD002F57E
:10982400806290421BD070B423F440730E894D685B
:109834000C889BB202F56C42334390420380C562AC
:10984400048506D00C4B984203D070BC012383825C
:1098540070478B7A70BC0386012383827047038030
:109864000B884A68C262038501238382704700BF64
:1098740000000140001000400004014000234FF0AC
:10988400FF3203804260038143808372704700BFCC
:1098940001858282704700BF038823F070031B0494
:1098A4001B0C19430180704741627047C1627047C5
:1098B400406A7047008D80B2704700BF038829B9A1
:1098C40023F002031B041B0C038070479BB243F07C
:1098D40002030380704700BF038829B923F00403FF
:1098E4001B041B0C038070479BB243F004030380EA
:1098F400704700BF038829B923F080031B041B0CA5
:10990400038070479BB243F080030380704700BF1D
:10991400038823F008031B041B0C038003889BB2F9
:1099240019430180704700BF038823F440731B046C
:109934001B0C038003889BB219430180704700BF4E
:10994400038829B923F001031B041B0C038070470F
:109954009BB243F001030380704700BF028CF0B454
:1099640022F001021204120C8D890284038C4E88A9
:109974008488028B23F0020335431B0422F0730214
:10998400124E1B0C12040F882B43120CB0429BB2D4
:10999400A4B242EA070209D00D4DA84206D0896854
:1099A40084800283F0BC416303847047CE890D8AAE
:1099B4004F8A23F00803334324F440748E883D43D4
:1099C40023F004032C433343A4B2E8E7000001402E
:1099D40000040140028CF0B422F010021204120CB4
:1099E4008C890284038C8588028B4E8823F02003A3
:1099F40022F4E64234431B0412040F88154E1B0C58
:109A0400120C43EA041342EA0722B0429BB2ACB2FE
:109A140092B209D0104DA84206D08968848002838E
:109A2400F0BC8163038470474FF6BF75CF8923F080
:109A3400800343EA07130E8A4F8A1D408B8824F45F
:109A440040643E4345EA031344EA86049BB2A4B24D
:109A5400E3E700BF0000014000040140028CF0B4C1
:109A640022F480721204120C8D890284038C4E88B5
:109A74008488828B23F4007335431B0422F0730221
:109A8400154E1B0C12040F8843EA0523120CB04236
:109A94009BB2A4B242EA070209D0104DA84206D0F4
:109AA400896884808283F0BCC163038470474FF665
:109AB400FF35CF8923F4006343EA07230E8A4F8AD4
:109AC4001D408B8824F440543E4345EA032344EA72
:109AD40006149BB2A4B2E3E7000001400004014075
:109AE400028CF0B422F480521204120C8D89028488
:109AF400038C8488828B4E8823F4005322F4E6423C
:109B040035431B0412040F880E4E1B0C120C43EA3F
:109B1400053342EA0722B0429BB2A4B292B209D002
:109B2400094DA84206D0896884808283F0BC016410
:109B3400038470470D8A24F4804444EA8514A4B253
:109B4400F1E700BF0000014000040140002303804E
:109B54004380838083608381C3810382438270470F
:109B640010B40124038C8C409BB223EA040321F03B
:109B740008040384183074B148F6FF740439C1F33F
:109B84004E010B58120223400B500B5892B21A4349
:109B94000A5010BC70474FF68F7449080B58234085
:109BA4000B500B5810BC1A430A507047416370475E
:109BB40081637047C163704701647047038B23F06E
:109BC40070031B041B0C194301837047038B23F49C
:109BD400E0431B041B0C43EA012189B20183704753
:109BE400838B23F070031B041B0C19438183704780
:109BF400838B23F4E0431B041B0C43EA012189B249
:109C040081837047038B23F008031B041B0C194347
:109C140001837047038B23F400631B041B0C43EA8A
:109C2400012189B201837047838B23F008031B044D
:109C34001B0C194381837047838B23F400631B043B
:109C44001B0C43EA012189B281837047038B23F003
:109C540004031B041B0C194301837047038B23F477
:109C640080631B041B0C43EA012189B20183704702
:109C7400838B23F004031B041B0C1943818370475B
:109C8400838B23F480631B041B0C43EA012189B2F8
:109C940081837047038B23F080031B041B0C19433F
:109CA40001837047038BC3F30E0343EA012189B296
:109CB40001837047838B23F080031B041B0C19431F
:109CC40081837047838BC3F30E0343EA012189B276
:109CD40081837047038C23F002031B041B0C19437C
:109CE40001847047038C23F008031B041B0C1943E5
:109CF40001847047038C23F020031B041B0C43EAEC
:109D0400011189B201847047038C23F080031B0482
:109D14001B0C43EA011189B201847047038C23F4BC
:109D240000731B041B0C43EA012189B201847047B0
:109D3400038C23F400631B041B0C43EA012189B246
:109D440001847047038C23F400531B041B0C43EA67
:109D5400013189B20184704710B40124038C8C4012
:109D64009BB223EA04030384038C02FA01F119432E
:109D740089B2018410BC704710B40424038C8C4055
:109D84009BB223EA04030384038C02FA01F119430E
:109D940089B2018410BC70470B88F0B5002B31D018
:109DA400042B55D0082B7FD045F6FF7340F6FF42B5
:109DB400048C4E8824F480542404240CB1F804E068
:109DC4000D890484878BB0F820C02C0303EA0C03AC
:109DD40044EA0E243A4043F48053224343EA0633D0
:109DE40092B29BB282830384828BC98822F440623C
:109DF4001204120C8283838B9BB243EA01239BB22D
:109E04008383F0BD028C4C8822F001021204120CF0
:109E14008B880E890284058B028CADB225F0F30584
:109E240092B22B4322F00A0243EA061322439BB266
:109E340042F0010203830284038BCA8823F00C03DB
:109E44001B041B0C0383038B9BB213430383F0BDDE
:109E540040F6FF42048C4D8824F010042404240CA2
:109E64008E88B1F808E00484078B038C34029BB21B
:109E740023F0A00344EA0E343A4043F01003224393
:109E840043EA051392B29BB202830384028BC9880E
:109E940022F440621204120C0283038B9BB243EA45
:109EA40001239BB20383F0BD048C4D8824F4807499
:109EB4002404240C8A880E890484848B038CA4B221
:109EC4009BB224F0F30423F42063224343F480730D
:109ED40042EA061243EA052392B29BB282830384C8
:109EE400838BCA8823F00C031B041B0C8383838B92
:109EF4009BB213438383F0BD00230122038082803D
:109F04004380C38003817047F0B54F888E88002F4B
:109F14000B880CBF02220022012E0CBF0224012454
:109F2400002B4CD040F6FF4E038C0D8923F0100318
:109F34001B041B0C0384B0F818C0038C36029BB2BC
:109F440023F0A00346EA05360EEA0C0E43F0100394
:109F54004EEA060643EA0713B6B29BB206830384AD
:109F6400038BCE8823F440631B041B0C0383038BF5
:109F74009BB243EA06239BB20383038C23F00103C1
:109F84001B041B0C0384038B018C9BB223F0F3038F
:109F940089B243EA051321F00A019BB241F00101A1
:109FA40023430A4303830284038B23F00C031B041F
:109FB4001B0C0383038B9BB21E430683F0BD038CEF
:109FC40040F6FF4C23F001031B041B0CB1F808E01E
:109FD4000384058B038CADB225F0F3059BB22E43AD
:109FE40023F00A0346EA0E163B4343F00103B6B2DC
:109FF40006830384058BCB8825F00C010904090C26
:10A004000183018B89B219430183018C21F0100172
:10A014000904090C0184058B018C0CEA050C89B236
:10A024004CEA0E3E21F0A0011FFA8EFE41F0100111
:10A0340041EA02124EEA042404830284028B22F4CD
:10A0440040621204120C0283028B92B242EA03238E
:10A054009BB20383F0BD00BF406B7047806B7047B9
:10A06400C06B7047006C7047038B23F00C031B0418
:10A074001B0C0383038B9BB219430183704700BFFE
:10A08400038B23F440631B041B0C0383038B9BB2DD
:10A0940043EA012189B20183704700BF838B23F017
:10A0A4000C031B041B0C8383838B9BB21943818396
:10A0B400704700BF838B23F440631B041B0C838312
:10A0C400838B9BB243EA012189B28183704700BF2D
:10A0D40010B40B884C888A882343CC8813430A899C
:10A0E40023434C8913438A89234313439BB2A0F827
:10A0F400443010BC704700BF00230380438083803A
:10A10400C380038143818381704700BFB0F844302A
:10A1140021B9C3F30E03A0F8443070476FEA4343F8
:10A124006FEA53439BB2A0F844307047838829B93F
:10A1340023F004031B041B0C838070479BB243F081
:10A1440004038380704700BF838829B923F0010387
:10A154001B041B0C838070479BB243F00103838074
:10A16400704700BF81827047038A194214BF0120DF
:10A1740000207047C94389B201827047038A8289EB
:10A1840011EA030092B203D0114214BF012000204F
:10A19400704700BFC94389B2018270470A43A0F8DF
:10A1A4004820704783899BB21AB923EA010181814F
:10A1B4007047194381817047FFF7F4BF838829B939
:10A1C40023F008031B041B0C838070479BB243F0ED
:10A1D40008038380704700BF038923F007031B042F
:10A1E4001B0C0381704700BF038923F070031B0419
:10A1F4001B0C1943018103899BB243F007030381BC
:10A20400704700BF602970B427D0068C42F0010269
:10A2140026F001063604360C0684058B068C25F0E0
:10A22400F3042404240C26F00A0544EA03142D0440
:10A2340044F001042D0CA4B215430483058403895E
:10A2440070BC23F070031B041B0C194301810389A8
:10A254009BB243F007030381704740F6FF44058C2B
:10A2640025F010052D042D0C0584068B058C344037
:10A2740025F0A0052D042D0C44EA033345EA02120F
:10A2840043F4807342F010029BB292B203830284BF
:10A29400D5E700BF10B4048942EA03231943E4B2AA
:10A2A400214389B20181038910BC23F077031B0485
:10A2B4001B0C43F077030381704700BF10B404897B
:10A2C40042EA03231943E4B2214389B20181038999
:10A2D40010BC9BB243F4804303817047038923F08D
:10A2E40070031B041B0C194301817047838823F0FE
:10A2F40070031B041B0C838083889BB219438180E9
:10A30400704700BF038923F007031B041B0C038160
:10A3140003899BB219430181704700BF038923F06D
:10A3240080031B041B0C038103899BB21943018125
:10A33400704700BF10B404890A43E4B242EA03231D
:10A3440023439BB2038110BC704700BF70B40689DD
:10A35400048B058C24F4407424F0030425F02205B6
:10A3640026F0070624042D0442EA03133604240CC1
:10A374002D0C360C44F480741D43314344F0010425
:10A38400ADB201810483058470BC7047838829B908
:10A3940023F080031B041B0C838070479BB243F0A3
:10A3A40080038380704700BFA0F85010704700BF3F
:10A3B40040F0BF60024B40F40030D860704700BFEB
:10A3C40000ED00E0C3785BB90121037815485A0910
:10A3D40003F01F03203201FA03F340F822307047E0
:10A3E400114B0F21DA6870B4D2430124C2F3022264
:10A3F4004378C2F104058678EDB2AB4041FA02F22B
:10A404003240DBB201781343064A1B0101F01F05F9
:10A414005018DBB2AC4080F80033490942F82140BF
:10A4240070BC704700E100E000ED00E021F0604105
:10A4340021F07F01014B01439960704700ED00E07A
:10A4440029B9054A136923EA000010617047024BD9
:10A454001A6910431861704700ED00E0044A0428AB
:10A4640013680CBF43F0040323F004031360704724
:10A4740010E000E0D0F8E83510B51B6904469847B1
:10A48400032384F81231002010BD00BF042208B554
:10A4940090F81211D0F8E83580F8131180F81221E1
:10A4A400DB689847002008BD08B5D0F8E435DB69BF
:10A4B40003B19847002008BD08B5D0F8E4351B6AFD
:10A4C4009847002008BD00BF08B5D0F8E4355B6AA2
:10A4D4009847002008BD00BF002310B50446194664
:10A4E400402201F069FA802120460023402201F035
:10A4F40063FA0122D4F8E83584F81221A0785B6865
:10A504009847002010BD00BF10B582B069460446CC
:10A5140000F080FC9DF8001001F01F03012B18D0FF
:10A5240010D3022B07D001F08001204601F0DAFAA3
:10A53400002002B010BD6946204600F007FC002050
:10A5440002B010BD6946204600F07CFA002002B03B
:10A5540010BD6946204600F0DFFB002002B010BDAC
:10A5640038B5044649B990F81131022B19D094F842
:10A574001631012B0CD0002038BDD0F8E4355B69CE
:10A58400002BF8D090F81221032AF4D19847F2E76F
:10A5940000231F49226909680020516084F816319C
:10A5A40038BDD0F83821D0F824319A420ED9C17878
:10A5B400D21A0129D0F82811C0F8382104BFC918CB
:10A5C400C0F8281192B200F0E7F9D0E7D0F83C21A6
:10A5D400B2FBF3F503FB15255DB9934209D8D0F816
:10A5E40040319A4205D22A4600F0D6F9C4F84051C7
:10A5F400BDE7D4F8E435DB681BB194F81221032AD3
:10A6040003D0204600F0F8F9B1E720469847F8E770
:10A61400E801002010B5044629B990F81131032B44
:10A624000CD0002010BDD0F8E4359B69002BF8D085
:10A6340090F81221032AF4D19847F2E7D0F8903326
:10A64400D0F87C23934211D9C1789B1A0129D0F800
:10A654008013C0F8903304BF8918C0F880139A425D
:10A6640028BF1A4692B200F0AFF9DAE7D0F8E43521
:10A674001B691BB190F81221032A03D0204600F075
:10A68400ABF9CEE79847F9E72DE9F04104461646C1
:10A6940098460D46069F01F04DFE20462946C4F813
:10A6A400E485C4F8E875C4F8EC6501F039F9D4F828
:10A6B400E8351B6898472046BDE8F04101F06ABEC2
:10A6C4000020704710B50446D0F8E4351B6898475D
:10A6D400D4F8E8359B689847002010BD08B5D0F839
:10A6E400E4355B689847002008BD00BF10B5074CEF
:10A6F4002068FF2807D0064A064B12689B68064963
:10A704009847FF232360002010BD00BF54000020A1
:10A714006801002038010020700200204323014812
:10A724000B8070475800002038B51D4C6368052B1A
:10A7340003D05A1C6260002038BD0022237A626074
:10A74400012BF8D0E1682369B1F5006F1AD0994262
:10A754001ED020D9134B8AB21A44C1F50063402B92
:10A764000BD9403B636140234031E16001258121E5
:10A77400257201F095F9002038BD00251944E160E7
:10A784006561F3E7E2601BB11146064A5B1AE6E72E
:10A7940000232372CFE7034D8AB22A44F6E700BFB1
:10A7A400680100207802002038B50446094D01EB09
:10A7B4008101094B00EBC101B1F88C1328461B69D8
:10A7C40098472A4620464023012101F043F90020FE
:10A7D40038BD00BF300200203801002070B50B786E
:10A7E4000D4613F06004064615D0202C0FD1CC88FA
:10A7F400002C3BD01B0626D44E78254D254B2246F3
:10A8040025492E601C6000F0CFF8002070BD00F0D8
:10A8140025FB022070BD4B780A2B21D00B2B0CD0CA
:10A82400062BF2D14B881B0A212B2BD03A221B4931
:10A83400304600F0A1F8002070BD8B78F3B9154ABA
:10A844001846936170BD164B22469B68124968787E
:10A854009847EA883046104900F08EF8002070BD11
:10A864000122104900F088F8204670BD0C4B48784E
:10A874009B68224621469847204670BD00F0EEFAB8
:10A88400204670BDCA8808493A2A28BF3A22CFE731
:10A8940054000020680100207002002061000020A4
:10A8A40038010020800100206A00002010B5044611
:10A8B400812101F0B3F82046012101F0AFF8822193
:10A8C400204601F0ABF8024B5B689847002010BDAE
:10A8D4003801002038B5044602234022812101F0CA
:10A8E4006BF8204602234022012101F065F820463E
:10A8F40003230822822101F05FF800250221074B7F
:10A90400074A19715D711368984720464023054A28
:10A91400012101F09FF8284638BD00BFD400002073
:10A92400380100203002002011490B7A012B01D09C
:10A93400002070474B69C3B1402B10B50CD80024DC
:10A94400CA684C619C18CC6092B20A490A448121BD
:10A9540001F0A6F8002010BDCA68403B02F1400493
:10A964004B61CC6092B24023EFE70B72002070473A
:10A97400680100207802002038B5134602250A46F3
:10A98400C0F83C31C0F8383180F81151002101F091
:10A9940087F8002038BD00BF08B513460A460021D9
:10A9A40001F07EF8002008BD38B5134603250A4699
:10A9B400C0F89433C0F8903380F81151002101F0AD
:10A9C40049F8002038BD00BF08B513460A460021E7
:10A9D40001F040F8002008BD0023042210B504460D
:10A9E400194680F811211A4601F05AF8204600F061
:10A9F400A9FE002010BD00BF0023052210B50446A7
:10AA0400194680F811211A4601F024F8204600F076
:10AA140099FE002010BD00BF01EB810100EBC101D4
:10AA2400B1F88C03704700BF10B50446802101F0D3
:10AA340059F82046002101F055F82046BDE81040A1
:10AA440000F080BE30B54B7883B00C460546092B28
:10AA54000CD8DFE803F031440B570B056D0B831161
:10AA64008B881BB9CB88002B00F087802846FFF722
:10AA7400DBFF002003B030BD8978A34C012921708D
:10AA8400F4D890F81231022B00F09280032BEDD110
:10AA9400002900F02E8190F81011012900F0218185
:10AAA400FFF71CFE2178284685F81011FFF70AFEEF
:10AAB4002846FFF791FFDCE7012290F812310321C9
:10AAC400023B9342D2D8904BD0F818019A6000B15F
:10AAD4009960284602228D49FFF74EFFC9E790F896
:10AAE4001231023B012BC1D84B88012BC1D100226A
:10AAF400D0F8E435C0F818219B6898472846FFF73A
:10AB04006BFFB6E74B88012B00F0E580022BB0D138
:10AB14008B8813F0FF0FACD11B0A0269013B52680A
:10AB2400042B00F28F80DFE803F09EA29A968A003D
:10AB34004A88130A013B062B98D801A151F823F047
:10AB440023AC0008E5AB0008D3AB000871AA0008E9
:10AB540071AA000871AA000871AA0008CA88012A0B
:10AB640084D190F81231022B1ED0032B7FF47EAFD8
:10AB740000F58871FFF700FF7BE790F812318C78BD
:10AB8400032B04F07F043FF471AF80F81441214695
:10AB940000F0F2FF2846FFF71FFF002C00F0A5800D
:10ABA400022385F8123164E75949FFF7E5FE60E7AF
:10ABB400002900F096800121032380F8101180F809
:10ABC4001231FFF77FFD2846FFF706FF51E7D2B2A7
:10ABD400052A3FF64BAFDFE802F0766E665E564E0E
:10ABE400D0F8E4350DF106019B6A8078984702237A
:10ABF4004370C5F8F005BDF80620002A3FF439AFCC
:10AC0400E388002B3FF435AF934228BF1346014637
:10AC14001A462846ADF80630FFF7AEFE29E7D0F80D
:10AC2400EC350DF106011B6880789847E388402BCA
:10AC340003D095F81221012ADDD10822E1E705238A
:10AC440063F306120121334B85F8161128461A6066
:10AC5400FFF7C2FE0DE7042363F30612F2E70323B2
:10AC640063F30612EEE7012363F30612EAE7022315
:10AC740063F30612E6E7D0F8EC350DF106019B69A3
:10AC840080789847B7E7D0F8EC350DF106015B6999
:10AC940080789847AFE7D0F8EC350DF106011B69D1
:10ACA40080789847A7E7D0F8EC350DF10601DB680A
:10ACB400807898479FE7D0F8EC350DF106019B6842
:10ACC4008078984797E7D0F8EC350DF106015B687A
:10ACD400807898478FE7D0F8E425C0F81831936856
:10ACE40098472846FFF778FEC3E6012385F812311A
:10ACF400BFE6022380F8101180F81231FFF7EEFC52
:10AD04002846FFF769FEB4E6840100208C01002088
:10AD140088010020E801002038B590F81231032B97
:10AD240003D10B790D46012B03D9FFF77DFE0020DB
:10AD340038BDD0F8E43504469B689847EB88002B6F
:10AD4400F5D12046FFF748FEF1E700BF38B54B7850
:10AD54008A88012B0C460546D1B222D018D3032B86
:10AD640014D190F81231022B16D0032B3BD16388F7
:10AD74001BB94A0601D000F0B5FED5F8E4352146EA
:10AD84009B68284698472846FFF726FE002038BDD2
:10AD940090F81231022B12D14A06F7D000F0A2FE2D
:10ADA400F4E790F81231022BF6D0032B1BD1638801
:10ADB400002BEBD14B06E6D000F0B2FEDDE7032B0F
:10ADC40011D1130613D401EB810100EBC10191F8F9
:10ADD4007633B3B900220D4BDA60284602220C49BF
:10ADE400FFF7CAFDD2E7FFF71FFE002038BD01F0D0
:10ADF4007F0101EB810100EBC10191F81E31002BB1
:10AE0400E8D00122014BDA60E7E700BF84010020AB
:10AE140090010020012290F8CC3510B40B7090F80A
:10AE2400CD354B7090F8CF4590F8CE3503EB042325
:10AE34004B8090F8D14590F8D03503EB04238B80F8
:10AE440090F8D34590F8D23503EB04239BB2CB8022
:10AE540010BCC0F8403180F81121704710B5044689
:10AE6400802100F03FFE2046002100F03BFE2046FA
:10AE7400BDE8104000F066BC00B3037830B4F3B111
:10AE84000446002314F8015F0133DBB2002DF9D12D
:10AE94005B000233DCB2032513800C704D70047820
:10AEA4005CB1022300255A1CD2B2CC548D5410F844
:10AEB400014F0233DBB2002CF5D130BC70470224C1
:10AEC4002346E8E730B50023054683B00320019309
:10AED40001F078FA2B68134C1A69019207E00320F9
:10AEE40001F070FA2B68013C1A69019216D0019A9C
:10AEF400002AF4DA01990B4A41F001010191019908
:10AF040019611969019103E01969013A019102D0AB
:10AF14000199C907F8D4032001F054FA002003B0C2
:10AF240030BD00BF400D030030B4C4786CB900EBF1
:10AF34008202D81C8010D2F8D05006D0234651F893
:10AF4400042B013398422A60F9D1002030BC7047A9
:10AF54000332921030B4D0F8D05009D00846002300
:10AF64002C6801339A4240F8044BF9D101EB820179
:10AF7400084630BC704700BF2DE9F041012440234E
:10AF84000022A14284708380C2705AD0002945D027
:10AF94004FF400614378C26001610678002B65D0EC
:10AFA4004FF460674FF488684FF4806C03F1050E2A
:10AFB40000EB8E0E02F5106300F1140100F1500451
:10AFC40041F8043F03F50075714544F8045F03F14B
:10AFD4002003F5D1C0F814C0C0F8CC80CEB123361C
:10AFE400B600841900F18C0102F5A06341F8043F16
:10AFF4008C4203F12003F9D106F14001014402F52A
:10B00400805200F1CC0343F8042F994202F5805298
:10B01400F9D1C0F80C710020BDE8F0814FF4A062B2
:10B02400164C0C260623C2802246C172144FDFF848
:10B034006080DFF860C0134906704370C46001612A
:10B04400B4E70222082604234FF4A0754FF0A0446D
:10B05400C1724172027206704370C58022460A4F63
:10B06400DFF83480DFF834C00849E7E71A464FF4C4
:10B0740060674FF488684FF4806CABE700000440CD
:10B08400000E044000080440000E00500008005068
:10B0940040040440000404404004005000040050F4
:10B0A40038B5037A0446012B22D050F80C2FD3680C
:10B0B40043F04003D360FFF705FF637AE268002B97
:10B0C4000CBF4FF434134FF474131420936301F042
:10B0D4008BF9E378012B01D0002038BDE368052209
:10B0E4009D68002062F3440545F020059D6038BD4D
:10B0F4000025C268417A936B65F3104309B143F4A8
:10B1040080139363D36804F10C006FF386136FF319
:10B1140096536FF351436FF3D343D360FFF7D2FEDB
:10B12400E378012BD8D10522E36862F3440545F0A6
:10B1340020059D60D3E700BFC2680020936843F0F8
:10B1440001039360704700BFC2680020936823F036
:10B1540001039360704700BF002300B583B00193DF
:10B16400019A0E4B42F020020192019A61F38A1275
:10B174000192019AC1680A610A69019203E00A69AD
:10B18400013B019202D0019A9206F8D4032001F007
:10B1940019F9002003B05DF804FB00BF400D030063
:10B1A400002300B583B00193019A0C4B42F01002C6
:10B1B4000192019AC1680A610A69019203E00A696D
:10B1C400013B019202D0019AD206F8D4032001F087
:10B1D400F9F8002003B05DF804FB00BF400D030044
:10B1E400C26808B5D36801296FF35D736FF39E736A
:10B1F40008D009B943F08043D360322001F0F4F859
:10B20400002008BD43F00053F6E700BFC368586947
:10B2140000F00100704700BFC3685869C04300F0E4
:10B2240001007047C368586900F00100704700BF0F
:10B23400C36858699B691840704700BFC368586861
:10B24400704700BF0269136861F30103136070471C
:10B2540030B400236FF080414FF0FF35C2680B4CCF
:10B2640093615161556051619461C07891699842CC
:10B2740008BF102330BC43F4701343F4605343F00D
:10B2840008030B4300209361704700BF000800804F
:10B294000023D0F80C2101692DE9F04113600A68FC
:10B2A400054663F3CC220A60C27A012A4BD01021EE
:10B2B4002846FFF751FF2846FFF772FF00224FF0A0
:10B2C400FF332E6932617261B361F261697841B30F
:10B2D4004FF0FF0E174605F1140050F8043F0132F9
:10B2E4001C68002CACBF00244FF0904491421C60B9
:10B2F4001F61C3F808E0F0D800224FF0FF0E174694
:10B3040005F1500050F8043F01321C68002CACBF1A
:10B3140000244FF0904491421C601F61C3F808E080
:10B32400F0D8336943F480733361EB78012B04D193
:10B334004022194B62F3594333632846FFF788FFD1
:10B344000020BDE8F081184620274FF0A008802691
:10B354004FF4907C4FF4A07E1C460A6867F31F43A9
:10B3640042F003020A6068F30F00EA6866F31F40C4
:10B3740066F30F0356629362C2F804016CF30F0084
:10B3840067F31F40C2F808016EF30F0064F31F4017
:10B39400C2F80C018BE700BF0301010003699B683D
:10B3A400C3F34103022B06D003D8012B01D00320A1
:10B3B4007047022070470120704700BF036910B432
:10B3C4009A688169C2F34102022A14BF002403224D
:10B3D400086814BF64F30A0062F30A0008605A683C
:10B3E400002042F480725A6010BC704770B44B78ED
:10B3F4000022012B1FD001230C7800EB8405A3400D
:10B404006C6D63F31F4223681D040DD48E68CD78E0
:10B4140066F30A03C98865F3934361F3995343F0D0
:10B42400805343F400432360036970BCD96900204E
:10B434000A43DA6170470C78A34000EB840463F399
:10B444000F02A469DFE700BF002230B44B78154631
:10B45400012B13D00124097800EB81035B6D04FAFE
:10B4640001F161F31F4501696FF3CF321A60CB69B3
:10B47400002023EA0503CB6130BC704709788B4078
:10B4840000EB810163F30F058B69ECE72DE9F041D3
:10B494004A78012A2AD00B784A6900EB83035D6D50
:10B4A4002B682C69DAB18E683244013AB2FBF6F2A9
:10B4B400C2F3090706FB07F662F3DC4466F31204E1
:10B4C4002C61C278012A04BF0A696A61CA78012A18
:10B4D40031D043F004432B600020BDE8F081012209
:10B4E4008E6866F3120462F3DC44E9E791F800C065
:10B4F4004E6900EB8C0EDEF818502B682C69FEB1F7
:10B50400D1F8088066F3120406EB0807013FB7FB85
:10B51400F8F791F8038067F3DC44B8F1010F3ED0EB
:10B524002C61C478012C43D0016902FA0CF2486BF7
:10B5340002434A63CDE74A794AB343F00053C8E76C
:10B5440066F3120462F3DC44CF782C61C278012ADA
:10B5540020D0012FBDD100698068C00554BF43F0DD
:10B56400005343F0805343F004432B60002AB3D1CB
:10B57400B0B203308010DEF8D040ADD01346CA68B4
:10B5840052F8041B013398422160F9D1A4E743F037
:10B5940080539EE70C69012F6C619AD1DBE768F355
:10B5A4005E742C61C278012AD5D10C696C61D2E732
:10B5B4000A696A618DE700BFF0B44A7882B0012A53
:10B5C40033D00B784C6900EB83035A6D0127136861
:10B5D40015690095DCB19DF802608D689DF8004006
:10B5E40067F3C40665F306048DF802604D618DF8B7
:10B5F4000040009C43F004431461C078012804BF58
:10B60400096951611360002002B0F0BC70479DF8D5
:10B6140002509DF800408E6867F3C40566F3060483
:10B624008DF802508DF80040E3E784694D69236882
:10B63400266900962DB38A68954239D99DF8005041
:10B644004A6162F306058DF8005001259DF8022039
:10B6540065F3C4028DF80220009A2261C278012A9F
:10B664001CD043F004432360002ACCD14B69002B47
:10B67400C9D0012302690878516B83400B4353639B
:10B68400C1E79DF800709DF8026065F3060762F358
:10B69400C4068DF800708DF80260DDE70A78096948
:10B6A40000EB8200826943F0044351612360AAE7FE
:10B6B4009DF8002065F306028DF80020C5E700BF61
:10B6C4004B78012B0B7800EB830006D0426D136896
:10B6D40043F4001313600020704782691368002B41
:10B6E400F6DA43F0804343F40013136000207047FC
:10B6F4004B78CA78012B0B78A2F1020200EB83008D
:10B704000CBF8069406D012A03686FF3555398BFDD
:10B7140043F0805303600020704700BF03699869B9
:10B72400DB691840000C704700EB810103694A6D26
:10B7340090685B691840704703699869DB69184031
:10B7440080B2704730B44FF0000301251822002462
:10B75400C02182B065F3C40300948DF802308DF8E3
:10B7640003108DF80020009A436D1A61C278AA4232
:10B7740006D14FF0802200F2CC50586119681A604B
:10B7840002B030BC704700BFD0F81831EBB1036988
:10B794009A68D20719D510B5827A42B1D0F80C2133
:10B7A400D0F80C116FF341026FF300020A600446F3
:10B7B4005A68052042F001025A6000F015FE226921
:10B7C400536823F00103536010BD7047837A63B15B
:10B7D40003699B68DB0708D5D0F80C31D0F80C213D
:10B7E4006FF341036FF3000313607047012370B5D7
:10B7F4004578064680F812317DB1FF21053500EB0E
:10B80400850500F1140300F1500253F8044F52F877
:10B81400040FAB42A1608160F7D100224FF0FF31E9
:10B82400336930461A615A61DA619961FFF7B8FCED
:10B834003046BDE870401021FFF78EBC4B78012BD9
:10B844000B7800EB830010D0436D1B68C3F30743F0
:10B854009A0607D413F0020F14BF4FF400504FF4AC
:10B86400405070474FF48050704783691B68C3F39E
:10B874000743990605D413F0020F14BF202030208B
:10B8840070471020704700BFF0B44C780D46012C6F
:10B8940015D00978B2F5805F00EB81014E6D3368F5
:10B8A4001F4619D0B2F5005F13D0B2F5405F1ED029
:10B8B40012B962F3CF373B463360F0BC70470C7863
:10B8C400102A00EB8404A66933681F4624D0202A7A
:10B8D40005D143F00063EFE743F40013ECE7302AAB
:10B8E400E6D1990213D500206871A16904E09A0297
:10B8F4000DD500206871496DEB780A68023B60F34E
:10B904005552012B98BF42F080520A60D5E743F0AC
:10B91400044343F40043CFE7F0BCFFF7D1BE00BFBC
:10B92400F8B506460125FFF727FB0021747886F851
:10B93400125186F8141164B3084633463246402740
:10B9440082F81C11A2F822110131A14282F81D5182
:10B9540082F81F01C2F82471C2F82801C2F830012C
:10B9640002F12802ECD100224020114683F874230E
:10B97400A3F87A230132A24283F8751383F877136C
:10B98400C3F87C03C3F88013C3F8881303F12803B6
:10B99400ECD13046FFF7D8FB3046FFF781FB00219E
:10B9A4003046FFF71DFC3046FFF772FC3046BDE819
:10B9B400F840FFF7C1BB00BF70B50D46090617D4A8
:10B9C400002605EB8504E40004F55D71044401449C
:10B9D40084F87453C4F87C2384F8773384F875634B
:10B9E400022B04BF00230B71FFF700FD002070BD84
:10B9F400012605F07F0505EB8504E40004F58E714E
:10BA04000444014484F81C51C4F8242184F81F31EF
:10BA1400A4F8225184F81D61E2E700BF4AB2002A6B
:10BA240008B50DDB01EB810300EBC30303F55D7384
:10BA3400D20F19705A701946FFF706FD002008BD91
:10BA440001F07F0101EB810300EBC30303F58E7367
:10BA5400EEE700BFF8B5002701F07F0606EB860489
:10BA6400E400051985F87463C5F88023C5F88833A4
:10BA7400C5F88C7385F87573C37804F55D74012B70
:10BA840008BFF6B200EB040108BFC5F884231EB159
:10BA9400FFF7FCFC0020F8BDFFF78EFD0020F8BD89
:10BAA400F8B54FF0010E002701F07F0606EB86047F
:10BAB400E40004F58E710444014484F81C61C4F864
:10BAC4002821C4F82C21C4F8303184F81DE1C4F8CD
:10BAD40034711EB1FFF7DAFC0020F8BDFFF76CFDEE
:10BAE4000020F8BD4AB2002A10B50FDB01EB810338
:10BAF40000EBC30303F55D730124D20F19705A7070
:10BB04009C701946FFF7DCFD002010BD01F07F0199
:10BB140001EB810300EBC30303F58E73ECE700BF75
:10BB24004AB2002A10B50FDB01EB810300EBC3031B
:10BB340003F55D730024D20F19705A709C70194676
:10BB4400FFF7D6FD204610BD01F07F0101EB810314
:10BB540000EBC30303F58E73ECE700BF08B50B06D7
:10BB640003D4FFF71DFB002008BD01F07F01FFF7A0
:10BB7400F3FA002008BD00BF0023026961F30A1331
:10BB840011680B43136070470269032053686FF315
:10BB94004103536000F028BC02690320536843F05A
:10BBA4000203536000F020BC0B0607D401EB8101B3
:10BBB40000EBC10101F55D71FFF740BE01F07F01AB
:10BBC40001EB810100EBC10101F58E71FFF736BE77
:10BBD4000B0607D401EB810100EBC10101F55D7196
:10BBE400FFF752BE01F07F0101EB810100EBC101BF
:10BBF40001F58E71FFF748BE2DE9F04F83B005467D
:10BC0400FFF70AFB18B9002003B0BDE8F08F2846FF
:10BC1400FFF70EFB81460028F5D0C0F3074818F063
:10BC2400080040F0518118F0040F40F0D6805FFA0C
:10BC340089F4A10725D4B9F1000FC0F2ED81C9F34D
:10BC44000726320700F19A80270700F18D80E1066C
:10BC540063D4F20619D4B30600F11D81C9F3074970
:10BC640019F0100F4ED119F0200FCDD09C4B28465F
:10BC74001B681B6A98474FF40012EB6801205A6155
:10BC8400C2E70222EB685A61D5E74FF000082A693F
:10BC940041465368284623F001035360FFF75CFADA
:10BCA4006F787FB1FF21053705EB870705F1140392
:10BCB40005F1500253F8044F52F8040F9F42A1605B
:10BCC4008160F7D101244FF0FF310B222B6964F31B
:10BCD4000F0864F31F489961C3F81C805A611A6104
:10BCE4001A6828466FF30A121A60FFF72BFD4FF407
:10BCF40080517B4BEA681B6851611B692846984751
:10BD04002046A8E7764B28461B68DB6998474FF422
:10BD14008012EB6801205A61A5E7EB689A6922F06A
:10BD240010029A611C6AC4F34342022A04F00F070A
:10BD340000F01581062A11D107EB870705EBC70729
:10BD4400082205F2CC512846FFF702F9D7F88C33C4
:10BD5400C4F30A141C44EB68C7F88C439A690120A5
:10BD640042F010029A6174E75D4B28461B68DB6859
:10BD740098470822EB6801205A6168E70021584B74
:10BD840095F812211B6828465B698DF807108DF819
:10BD9400072098474FF400622969EB6889685A6163
:10BDA400AB7AC3B1CB0716D595F81531012B12D157
:10BDB4009DF80730032B0ED1D5F80C3149491A6888
:10BDC40042F001021A601A6842F003021A600B6919
:10BDD40043F006030B61012036E72846FFF7ACFC6D
:10BDE4000746002800F0B9802E464FF0000A05F1FE
:10BDF400180826E0180704D508221346D8F80010BE
:10BE04008A60D90604D510221346D8F800108A6037
:10BE14005A0604D540221346D8F800108A609C07BD
:10BE240003D50223D8F800209360180600F1B480EB
:10BE34007F080AF1010A06F1280608F1040800F057
:10BE44008C80FB07F4D52A695FFA8AFB1069536B6F
:10BE540005EB8B0123FA0BF38969DB01DBB28968FB
:10BE640003430B40DBB2DC07C4D50121536B01FA59
:10BE74000AF023EA00031A48D8F800400068536324
:10BE84004368A160284659469847EC78012C00F095
:10BE9400DE800123AEE72846FFF790FAEB682846D8
:10BEA400DC68FFF77BFA032800F0F58001214022CB
:10BEB4000523A970AA8063F38D244FF40052EB6824
:10BEC4000120DC605A61C9E62846FFF727FC0446D6
:10BED400002840D0AB46002705F154060CE000BF13
:10BEE4002400002000ED00E0640807F1010706F1DA
:10BEF40004060BF1280B2ED0E207F5D55FFA87FA7A
:10BF040051462846FFF710FCC0B2C30713D50123DE
:10BF140032689360EB78012B00F0B480624B514699
:10BF24001B6828461B68984795F803A0BAF1010FCF
:10BF340000F09B800120810702D5022033689860BD
:10BF44000207D1D5584B28461B689B68984708239D
:10BF540032689360C8E7012065E6012067E647F68A
:10BF6400F07222423FF4FAAE07EB870705EBC707EE
:10BF7400C4F30A142246D7F880132846FEF7E8FFD4
:10BF8400D7F88023D7F88C3322442344C7F88C3362
:10BF9400C7F88023EB68E1E6D6F830E1D6F834C17F
:10BFA400D6F82431AEEB0C049C42214628BF194636
:10BFB400D8F800000331826992B2B2EB910F28D90C
:10BFC400E64526D9BEF1000F23D0D6F8281106E0A5
:10BFD400D6F830419C421CD9E41AD6F824319C424C
:10BFE40028BF1C465A46A3B22846FEF79DFFD8F840
:10BFF4000000D6F828118269D6F83431214423444C
:10C0040092B20334B2EB940FC6F82811C6F8343157
:10C01400DED8802282600BE7AB7A43B1D5F80C31CD
:10C02400D5F80C216FF341036FF3000313602A6901
:10C034001D495368096823F00103536028468B693E
:10C0440098474FF00042EB6801205A61F7E5BAF1D6
:10C05400000F7FF41EAF95F81131042B7FF419AF54
:10C064002846FFF76FFB2346C4E6002F7FF462AF38
:10C0740095F81131052B7FF45DAF2846FFF762FB7D
:10C08400504658E71269DBF87C33C2F312029B1A5C
:10C09400CBF88C3342E700214FF400720923A970D6
:10C0A400AA8063F38D2408E72400002007200121DF
:10C0B4000222024B187059709A707047800B00204E
:10C0C4004FF47A614FF47A72014B83E806007047AB
:10C0D400780B0020012170B5084682B0FDF7B2F953
:10C0E40001210220FDF7AEF901210420FDF7AAF990
:10C0F40001210820FDF7A6F901211020FDF7A2F97E
:10C104006846FDF709F801250023032202260B4C9B
:10C114006946204600928DF806308DF807308DF878
:10C1240004508DF80560FCF7A5FF65832946268336
:10C134004FF00050FDF7AAF902B070BD00100240A4
:10C14400024A536983F001035361704700100240AF
:10C15400704700BF704700BF0020704708B5FCF768
:10C1640081FD40B1FCF744FD0020FCF759FDFCF7CC
:10C17400EBFEFCF74DFDBDE80840FCF737B800BF07
:10C18400684620F007018D4601B4084B1A7822B99D
:10C1940001221A7001BC8546704700215A68013299
:10C1A4005A60197001BC8546704700BF9401002095
:10C1B40030B441F64B50F02500210722054B064CC4
:10C1C400586084F823506FF0040030BC99601A6002
:10C1D400FEF744B910E000E000ED00E0014B5868C0
:10C1E400704700BF94010020704700BF704700BF34
:10C1F400122301480B807047D40000200423014817
:10C204000B807047E8000020002070470020704732
:10C2140091B170B400260A4D01442B683F2B04D819
:10C2240001260478EA181471334401308842F5D1A8
:10C2340026B970BC00207047002070472B60F8E7D7
:10C244009C01002010B5044C0A4604482146FEF720
:10C2540013FE204610BD00BF780A002054C9000810
:10C2640010B5044C0A4604482146FEF705FE204654
:10C2740010BD00BF780A002068C9000810B5044C3E
:10C284000A4604482146FEF7F7FD204610BD00BFCC
:10C29400780A002080C9000810B5044C0A460448F6
:10C2A4002146FEF7E9FD204610BD00BF780A0020B4
:10C2B40088C9000810B5044C0A4604482146FEF714
:10C2C400DBFD204610BD00BF780A002094C9000899
:10C2D4002028F0B413D021280ED10F4A9369147F7B
:10C2E400507F927F1F0A1E0C1D0E0B704F708E70B4
:10C2F400CD700C7148718A710020F0BC7047064BF8
:10C304000C7948798A790D6858771C779A779D61FA
:10C314000020F0BC704700BFD4000020002070470C
:10C32400704700BF704700BF704700BF704700BF31
:10C33400704700BF012170B5084682B0FDF782F84E
:10C344004FF4C056002302220325114C69462046AF
:10C354008DF806308DF807308DF8042000968DF89E
:10C364000550FCF787FE20460A220B21FCF714FF38
:10C374000A2220460C21FCF70FFF01214FF48040D4
:10C38400FDF790F801218020FDF768F802B070BD38
:10C394000000024000B54FF4C06083B0FEF708F817
:10C3A40001234321032201A88DF804108DF80530E0
:10C3B4008DF807308DF80620FEF704F803B05DF819
:10C3C40004FB00BF0023C0EB0010064AC000A2FB20
:10C3D4000012801A02EB5002920801339A42FCD2F6
:10C3E400704700BF2549922400230749074A01FBEF
:10C3F40000F0A2FB0012801A02EB500292080133F3
:10C404009A42FCD2704700BFC0D40100254992244F
:10C41400684620F007018D4601B50348FFF7ECFBA1
:10C42400BDE8014085467047840B002000B5074AEB
:10C4340083B002F13C010091054B203201210548F3
:10C44400FEF722F903B05DF804FB00BFD40000201E
:10C454009C000020840B00200148FFF79DBB00BF17
:10C46400840B002010B40A4C2368082B0DD9431EFA
:10C47400E21C083012F8011F03F8011F8342F9D1AE
:10C4840000230120236010BC7047002010BC7047BB
:10C494009C01002089B1F0B40027084C084E0144E7
:10C4A4002268531C236010F8015BB3F5006F28BFAA
:10C4B40027608842B554F3D1F0BC7047780100205E
:10C4C40078020020034B5B7813B10322024B1A70ED
:10C4D400704700BF781100209411002010B5FFF7B9
:10C4E40039FEFFF7B9FFFFF779FE0446FFF776FE42
:10C4F400001B0028B8BF4042B0F57A7FF6DB72B665
:10C5040000224FF0FF31930003F16043013203F541
:10C514006143082AC3F88010C3F88011F3D10023C3
:10C5240018460D49CA180133F02B82F80003F9D1DB
:10C534000A4B002118600A48FCF7B4F90848FCF7D4
:10C54400DFF8FBF70BFFFCF77BFA0648FDF76CF806
:10C55400054B064ADA6010BD00E100E010E000E09F
:10C56400106402400000014000ED00E00100FA0503
:10C57400704700BF704700BF704700BF704700BFDF
:10C58400034B9B7803B99DE70422024B1A70704752
:10C594007811002094110020104B5B78A3B910B4DB
:10C5A40001240F490F4B08689B780F4A0F4902F882
:10C5B400013B0C70431E073013F8011F834202F83D
:10C5C400011BF9D110BC7047012BFCD100211420B0
:10C5D400074AD1715371117190717047781100201D
:10C5E400D0000020800B0020841100208111002045
:10C5F4009411002010B464241C491D4A0B78486827
:10C60400082B53701470506009D9F22B0ED0FF2BF5
:10C614001CD0882B17D00223137010BC7047052B35
:10C624001CD2013B022BF6D810BC70470B68114A90
:10C6340023F07F4323F0FF039342F5D10E4B98423E
:10C64400F2D110BC4AE710BCFFF7A6BF40F2D243B8
:10C654009842E9D10122094B1A70E5E78B781BB1A6
:10C664000423137010BC704710BC2BE77811002012
:10C674009411002000819200D6C5B4A3801100203B
:10C68400F0B5574C87B02378072B1FD0082B5FD009
:10C69400544D0023544A237012782B7012B1534B1B
:10C6A400534ADA606846FFF7DDFE28B1514B9DF826
:10C6B40000105B788B4238D0237813F0FB0F03D043
:10C6C400082B01D0FFF796FF07B0F0BD454D2B783E
:10C6D40033B1012B5ED0092103A8FFF7DBFED8E7B5
:10C6E400444B454A9F78597816787B18507892F8CD
:10C6F40007E0334403448DF80C70977973448DF844
:10C704000D1051793B4412790B4413448DF80E609B
:10C714008DF80F008DF810E08DF811708DF814303D
:10C724008DF812108DF81320D5E700230DF10102C6
:10C7340002A801E012F8011B0B448242DBB2F9D1DA
:10C744009DF808209A4231D00823237007B0F0BD29
:10C75400012600232749284A88784F788DF80C0051
:10C76400C5193544092103A88DF814508DF80D70AE
:10C774008DF80F308DF810308DF811308DF812309F
:10C784008DF813305370536016708DF80E60FFF7F8
:10C7940081FE7DE7194B0DF10B0203F1090013F83B
:10C7A400011F834202F8011FF9D194E70722144BB9
:10C7B4009DF801E09DF802709DF803609DF8045017
:10C7C4009DF8050022709DF806109DF8072083F857
:10C7D40000E05F709E70DD71987159711A7171E794
:10C7E400E0010020811100208011002000ED00E014
:10C7F4000400FA05800B002094110020831100200E
:10C804007811002000224FF0FF31930003F16043C0
:10C81400013203F56143082AC3F88010C3F880117C
:10C82400F3D1002318460449CA180133F02B82F8C7
:10C834000003F9D1704700BF00E100E0074A08494E
:10C84400136823F07F4323F0FF038B4200D070472B
:10C854005268044B9A42FAD140E600BF7811002096
:10C8640000819200D6C5B4A340F2D243034A526871
:10C874009A4202D10122024B1A70704778110020AB
:10C8840080110020034B10B9034ADA607047034A51
:10C89400DA60704700ED00E00100FA050400FA05D3
:10C8A400704700BF704700BF002103E00A4B5B588C
:10C8B4004350043109480A4B42189A42F6D3094AB4
:10C8C40002E0002342F8043B074B9A42F9D3FBF7FA
:10C8D4008DFC00F00DF87047C4C90008000000206A
:10C8E4004C0100204C010020A0110020FEE70000B4
:10C8F40008B5FFF733FC62B6FFF7D8FBFFF7E0FBA0
:10C90400FFF7E8FBFFF754FCFFF790FDFFF730FE5D
:10C91400FFF7C6FF0A4CFFF7B3FEFFF7C3FFFFF7AD
:10C924005DFC2368C01A0028B8BF4042B0F57A7F86
:10C93400F1DDFFF705FCFFF751FC2060EBE700BFDA
:10C94400E401002030303230563130300000000035
:10C954004576616C756174696F6E204465766963B0
:10C96400650000005472696E616D6963204D6F74D7
:10C97400696F6E20436F6E74726F6C00544D434543
:10C9840056414C0056435020436F6E666967000061
:10C9940056435020496E74657266616365000000F9
:10C9A400F8B500BFF8BC08BC9E467047F8B500BF98
:08C9B400F8BC08BC9E46704768
:04C9BC00A981000845
:04C9C0008581000865
:10C9C400000000000000000001020304060708093B
:10C9D400000E270700000000010203040102030403
:10C9E400060708092800002019A6000865A5000804
:10C9F4000DA50008ADA40008DDA4000891A400085A
:10CA040079A40008BDA40008CDA40008000000001B
:10CA140000000000FF00000009024300020100C002
:10CA2400320904000001020201000524001001057E
:10CA340024010001042402020524060001070582E2
:10CA4400030800FF09040100020A000000070501B1
:10CA5400024000000705810240000000D9A8000838
:10CA6400B1A80008E1A7000800000000F1A6000832
:10CA74002DA90008ADA700082DA70008000000009C
:10CA84000000000021A70008780000000800000052
:10CA940048C9000812010002020000403C2A0007B5
:10CAA40000020102030100000403090400C20100A2
:10CAB40000000800F5C1000801C2000865C20008B2
:10CAC40049C2000881C200089DC20008B9C200081A
:10CAD40025C30008EDC1000829C300082DC30008C0
:10CAE40031C3000835C30008F1C100080A0600027A
:10CAF400000000400100000021C300080DC200082E
:0CCB0400D5C2000811C2000815C20008CC
:040000050800C8AD7A
:00000001FF
